{
  "_format": "hh-sol-artifact-1",
  "contractName": "Token",
  "sourceName": "contracts/Token.sol",
  "abi": [
    {
      "inputs": [
        {
          "internalType": "string",
          "name": "_name",
          "type": "string"
        },
        {
          "internalType": "string",
          "name": "_symbol",
          "type": "string"
        },
        {
          "internalType": "uint256",
          "name": "_totalSupply",
          "type": "uint256"
        }
      ],
      "stateMutability": "nonpayable",
      "type": "constructor"
    },
    {
      "inputs": [],
      "name": "decimals",
      "outputs": [
        {
          "internalType": "uint256",
          "name": "",
          "type": "uint256"
        }
      ],
      "stateMutability": "view",
      "type": "function"
    },
    {
      "inputs": [],
      "name": "name",
      "outputs": [
        {
          "internalType": "string",
          "name": "",
          "type": "string"
        }
      ],
      "stateMutability": "view",
      "type": "function"
    },
    {
      "inputs": [],
      "name": "symbol",
      "outputs": [
        {
          "internalType": "string",
          "name": "",
          "type": "string"
        }
      ],
      "stateMutability": "view",
      "type": "function"
    },
    {
      "inputs": [],
      "name": "totalSupply",
      "outputs": [
        {
          "internalType": "uint256",
          "name": "",
          "type": "uint256"
        }
      ],
      "stateMutability": "view",
      "type": "function"
    }
  ],
  "bytecode": "0x608060405260126002553480156200001657600080fd5b5060405162000bb938038062000bb983398181016040528101906200003c91906200025b565b82600090816200004d919062000536565b5081600190816200005f919062000536565b50600254600a620000719190620007a0565b816200007e9190620007f1565b6003819055505050506200083c565b6000604051905090565b600080fd5b600080fd5b600080fd5b600080fd5b6000601f19601f8301169050919050565b7f4e487b7100000000000000000000000000000000000000000000000000000000600052604160045260246000fd5b620000f682620000ab565b810181811067ffffffffffffffff82111715620001185762000117620000bc565b5b80604052505050565b60006200012d6200008d565b90506200013b8282620000eb565b919050565b600067ffffffffffffffff8211156200015e576200015d620000bc565b5b6200016982620000ab565b9050602081019050919050565b60005b838110156200019657808201518184015260208101905062000179565b60008484015250505050565b6000620001b9620001b38462000140565b62000121565b905082815260208101848484011115620001d857620001d7620000a6565b5b620001e584828562000176565b509392505050565b600082601f830112620002055762000204620000a1565b5b815162000217848260208601620001a2565b91505092915050565b6000819050919050565b620002358162000220565b81146200024157600080fd5b50565b60008151905062000255816200022a565b92915050565b60008060006060848603121562000277576200027662000097565b5b600084015167ffffffffffffffff8111156200029857620002976200009c565b5b620002a686828701620001ed565b935050602084015167ffffffffffffffff811115620002ca57620002c96200009c565b5b620002d886828701620001ed565b9250506040620002eb8682870162000244565b9150509250925092565b600081519050919050565b7f4e487b7100000000000000000000000000000000000000000000000000000000600052602260045260246000fd5b600060028204905060018216806200034857607f821691505b6020821081036200035e576200035d62000300565b5b50919050565b60008190508160005260206000209050919050565b60006020601f8301049050919050565b600082821b905092915050565b600060088302620003c87fffffffffffffffffffffffffffffffffffffffffffffffffffffffffffffffff8262000389565b620003d4868362000389565b95508019841693508086168417925050509392505050565b6000819050919050565b600062000417620004116200040b8462000220565b620003ec565b62000220565b9050919050565b6000819050919050565b6200043383620003f6565b6200044b62000442826200041e565b84845462000396565b825550505050565b600090565b6200046262000453565b6200046f81848462000428565b505050565b5b8181101562000497576200048b60008262000458565b60018101905062000475565b5050565b601f821115620004e657620004b08162000364565b620004bb8462000379565b81016020851015620004cb578190505b620004e3620004da8562000379565b83018262000474565b50505b505050565b600082821c905092915050565b60006200050b60001984600802620004eb565b1980831691505092915050565b6000620005268383620004f8565b9150826002028217905092915050565b6200054182620002f5565b67ffffffffffffffff8111156200055d576200055c620000bc565b5b6200056982546200032f565b620005768282856200049b565b600060209050601f831160018114620005ae576000841562000599578287015190505b620005a5858262000518565b86555062000615565b601f198416620005be8662000364565b60005b82811015620005e857848901518255600182019150602085019450602081019050620005c1565b8683101562000608578489015162000604601f891682620004f8565b8355505b6001600288020188555050505b505050505050565b7f4e487b7100000000000000000000000000000000000000000000000000000000600052601160045260246000fd5b60008160011c9050919050565b6000808291508390505b6001851115620006ab578086048111156200068357620006826200061d565b5b6001851615620006935780820291505b8081029050620006a3856200064c565b945062000663565b94509492505050565b600082620006c6576001905062000799565b81620006d6576000905062000799565b8160018114620006ef5760028114620006fa5762000730565b600191505062000799565b60ff8411156200070f576200070e6200061d565b5b8360020a9150848211156200072957620007286200061d565b5b5062000799565b5060208310610133831016604e8410600b84101617156200076a5782820a9050838111156200076457620007636200061d565b5b62000799565b62000779848484600162000659565b925090508184048111156200079357620007926200061d565b5b81810290505b9392505050565b6000620007ad8262000220565b9150620007ba8362000220565b9250620007e97fffffffffffffffffffffffffffffffffffffffffffffffffffffffffffffffff8484620006b4565b905092915050565b6000620007fe8262000220565b91506200080b8362000220565b92508282026200081b8162000220565b915082820484148315176200083557620008346200061d565b5b5092915050565b61036d806200084c6000396000f3fe608060405234801561001057600080fd5b506004361061004c5760003560e01c806306fdde031461005157806318160ddd1461006f578063313ce5671461008d57806395d89b41146100ab575b600080fd5b6100596100c9565b6040516100669190610281565b60405180910390f35b610077610157565b60405161008491906102bc565b60405180910390f35b61009561015d565b6040516100a291906102bc565b60405180910390f35b6100b3610163565b6040516100c09190610281565b60405180910390f35b600080546100d690610306565b80601f016020809104026020016040519081016040528092919081815260200182805461010290610306565b801561014f5780601f106101245761010080835404028352916020019161014f565b820191906000526020600020905b81548152906001019060200180831161013257829003601f168201915b505050505081565b60035481565b60025481565b6001805461017090610306565b80601f016020809104026020016040519081016040528092919081815260200182805461019c90610306565b80156101e95780601f106101be576101008083540402835291602001916101e9565b820191906000526020600020905b8154815290600101906020018083116101cc57829003601f168201915b505050505081565b600081519050919050565b600082825260208201905092915050565b60005b8381101561022b578082015181840152602081019050610210565b60008484015250505050565b6000601f19601f8301169050919050565b6000610253826101f1565b61025d81856101fc565b935061026d81856020860161020d565b61027681610237565b840191505092915050565b6000602082019050818103600083015261029b8184610248565b905092915050565b6000819050919050565b6102b6816102a3565b82525050565b60006020820190506102d160008301846102ad565b92915050565b7f4e487b7100000000000000000000000000000000000000000000000000000000600052602260045260246000fd5b6000600282049050600182168061031e57607f821691505b602082108103610331576103306102d7565b5b5091905056fea2646970667358221220fe37d145f263217f898189c78166b7cdc7d4e5833f679ec3a271f2517209498b64736f6c63430008130033",
  "linkReferences": {},
  "deployedLinkReferences": {}
}